:040000000C945B0001
:100004000C9400000C9400000C9400000C9400006C
:100014000C9400000C9400000C9400000C9400005C
:100024000C9400000C9400000C9400000C9400004C
:100034000C9400000C9400000C9400000C9400003C
:100044000C9400000C9400000C9400000C9400002C
:100054000C9400000C9400000C9400000C9400001C
:100064000C9400001027E80364000A00010000104B
:1000740000011000010002004259203A0041492DBC
:10008400454C454B54524F4E494B000001002D4EF8
:10009400414E00494E460000050000037C000E005E
:1000A40005038100010004007A000100130390009D
:1000B4000000F894EE27EFBBF1E0F5BFE5BFF8E1EF
:1000C400A895A4B7A77FA4BFF0936000E093600055
:1000D4008DE0A2E0BB27ED938A95E9F780E098E0F4
:1000E400A0E0B1E0ED930197E9F7ECE9F0E0859148
:1000F4009591009761F0A591B59105901590BF0178
:10010400F00105900D920197E1F7FB01F0CFE0E0DB
:10011400EEBBEFEFEDBFE8E0EEBFC0E0D3E00C9440
:100124008F01E0E0E093B900ECE0E093B800E4E094
:1001340009C0E4EAE093BC00E091BC00E078E1F39C
:100144000895E4E9E093BC000895AA93E881E0935C
:10015400BB00E4E8E093BC00E091BC00E078E1F38C
:100164005FC0AA93E881F0E0E130A0E0FA0751F41F
:10017400E4ECE093BC00E091BC00E078E1F3E091B2
:10018400BB004EC0309751F4E4E8E093BC00E0912A
:10019400BC00E078E1F3E091BB0042C041C0AA9307
:1001A400C8DFAEE4D2DFE881E860AE2FCEDFAFEF88
:1001B400CCDFC7DF35C0AA93E881E460AE2FEFDF60
:1001C40087E08A95F1F7E881EB7FAE2FE8DF8AEFCD
:1001D40090E00197F1F724C0AA93A881E0DFA881F9
:1001E400EADF1EC0AA931A930A93EB81E07F1E2FC5
:1001F400EB81E295E07F0E2FAA81A12BEDDFAA818E
:10020400A02BEADF1981088124960895AA93E88136
:10021400EA93A0E004C0AA93E881EA93A1E0E2DFB4
:1002240021960895A1E008C0E4E03E2AE32DE860A9
:10023400AE2FECDF0895A2E0E9DFA2E0B0E00E9477
:1002440056020895AA932897E0E0E883E983E0E45E
:10025400EA83E0E0EB83E4E1EC83E0E0ED83E4E5D2
:10026400EE83E0E0EF83A8854A1618F4E42DE1500C
:10027400E887E885F0E0DE01EE0FFF1FAE0FBF1F39
:10028400EC91A985EA0FE068AE2FC0DF2A960895A5
:100294001A9310E0E1E0E41508F41860A2E3B0E07A
:1002A4000E945602A8E07BDFA8EEB3E00E9456024B
:1002B400A0E392DF84EE97E50197F1F7A0E38CDFEA
:1002C40084EE97E50197F1F7A0E386DF8EEE92E0E6
:1002D4000197F1F7A0E280DFE12FE062AE2F96DF15
:1002E400E4E03E2EA1DF9EDFE2E06E2EE62DE46028
:1002F400AE2F8CDFA0DFD6C0BA93AA931A93A9813C
:10030400BA81ED91A983BA831E2FE03019F0A12F91
:1003140082DFF5CF1881239608956097E0E8E09393
:100324006100E0E0E0936100FCDEB2DFE0E0EA932C
:10033400A0E088DFA0E0B3E0DFDFE0E0EA93A1E043
:1003440081DFA5E0B3E0D8DFA8EEB3E00E94560257
:1003540069DF0AD0E883E0E0E983EA93A0E072DF92
:10036400DE01CADFF6CFFFCF1A93E3DEAEE4EDDEA3
:10037400A0E0EBDEA6EFE9DEE4DEDBDEAFE4E5DE03
:10038400A1E0EFDEA0E0EDDE1E2FDBDEE12FF0E0EA
:100394000E946902E17011F4E1E384C0A12FB0E08E
:1003A400E5E00E946002E17011F4E4E37BC0A12F58
:1003B400B0E0E6E00E946002E17011F4E7E372C08D
:1003C400A12FB0E0E7E00E946002E17011F4EAE2DC
:1003D40069C0AFDEAEE4B9DEA0E0B7DEA5EFB5DEFE
:1003E400B0DEA7DEAFE4B1DEA1E0BBDEA0E0B9DEA3
:1003F4001E2FA7DEE12FF0E00E946902E17011F4E4
:10040400E2E350C0A12FB0E0E5E00E946002E17099
:1004140011F4E5E347C0A12FB0E0E6E00E946002DA
:10042400E17011F4E8E33EC0A12FB0E0E7E00E94E0
:100434006002E17011F4E0E335C07BDEAEE485DEFA
:10044400A0E083DEA3EF81DE7CDE73DEAFE47DDE3D
:10045400A1E087DEA0E085DE1E2F73DEE12FF0E051
:100464000E946902E17011F4E3E31CC0A12FB0E023
:10047400E5E00E946002E17011F4E6E313C0A12FED
:10048400B0E0E6E00E946002E17011F4E9E30AC022
:10049400A12FB0E0E7E00E946002E17011F4E3E212
:1004A40001C0E8E719910895109639F088E893E1BE
:1004B4000197F1F7A8951197C9F70895EE230E2E29
:1004C400FD0121F0F595E7950A94E1F70895F59576
:1004D400E795F595E795F595E795F595E7950895ED
:00000001FF
